:020000040800F2
:1000000000500020810C00081D0C0008290C00087D
:100010002F0C0008350C00083B0C00080000000005
:100020000000000000000000000000000145000882
:10003000410C000800000000D146000819470008E4
:10004000C90C0008C90C0008C90C0008C90C00083C
:10005000C90C0008C90C0008C90C0008C90C00082C
:10006000C90C0008C90C0008C90C0008C90C00081C
:10007000C90C0008C90C0008C90C0008C90C00080C
:10008000C90C0008C90C0008C90C0008C90C0008FC
:100090004D0C0008C90C0008C90C0008C90C000868
:1000A000C90C0008610C0008C90C0008C90C000844
:1000B000C90C0008C90C0008C90C0008C90C0008CC
:1000C000C90C0008C90C0008C90C0008C90C0008BC
:1000D000C90C0008C90C0008C90C0008C90C0008AC
:1000E000C90C0008C90C0008C90C00080000000079
:1000F0000000000000000000000000000000000000
:0C01000000000000000000005FF808F1A3
:1001100010B5054C237833B9044B13B10448AFF341
:1001200000800123237010BD10000020000000009B
:100130002C4C000808B5034B1BB103490348AFF32F
:10014000008008BD00000000140000202C4C0008B6
:1001500080B485B000AFF860B9607A60FB68064A89
:100160001A60BB68054A1A607B68C8221A6000BF23
:100170001437BD4680BC70472C0000208000002052
:1001800080B586B000AF78600023BB6007F10C0338
:1001900004330D4A0021786800F0D2FF0A4B1B6837
:1001A0009BB2BB810421094801F070FD084B18681F
:1001B00007F1080207F10C01002303F043F800BF28
:1001C0001837BD4680BD00BF8C11002000080140DB
:1001D000AC11002080B485B000AF0346FB80002343
:1001E000FB73FB88642202FB03F3174AA2FB032381
:1001F0009B0AFB73FB8844F21F0293421DD8FB88C5
:1002000042F6E162934202D91423FB7315E0FB88A6
:10021000B3F57A6F02D91323FB730EE0FB88B3F5B5
:100220007B7F02D31223FB7307E0FB880A2B02D9E2
:100230001123FB7301E01023FB73FB7B184614377B
:10024000BD4680BC704700BFD34D621080B584B0FE
:1002500000AF0346FB710023FB73FB79022B0BD12C
:10026000D123FB730E4B186807F10F0100234FF0E9
:10027000FF3202F0EDFE0EE00A4B9B79022B0AD111
:10028000D023FB73064B186807F10F0100234FF0D2
:10029000FF3202F0DDFE00BF1037BD4680BD00BF5B
:1002A000A8110020A003002080B584B000AF034651
:1002B000FB710023FB73FB791F2B1AD01F2B02DC71
:1002C0000F2B27D04FE07F2B35D0FF2B00D04AE0FB
:1002D000274B9B79012B3FD00120FFF7B7FF244B21
:1002E00001229A71FB791B09DBB243F07003FB73A7
:1002F00032E01F4B9B79042B30D00420FFF7A6FF80
:100300001B4B04229A71FB791B09DBB243F070038B
:10031000FB7323E0164B9B79032B21D00320FFF7BF
:1003200095FF134B03229A71FB791B09DBB243F053
:100330007003FB7314E00E4B9B79022B12D002204A
:10034000FFF784FF0A4B02229A71FB791B09DBB28B
:1003500043F07003FB7305E000BF04E000BF02E060
:1003600000BF00E000BFFB7B18461037BD4680BDD4
:10037000A003002080B485B000AF0346FB710023CA
:10038000FB73FF23BB73FB792C2B1CD8FB79082B49
:1003900019D9FB79262B02D90C23BB7313E0FB7907
:1003A000202B02D90823BB730DE0FB79182B02D94F
:1003B0000023BB7307E0FB79102B02D90223BB7328
:1003C00001E00323BB73BB7BFF2B0BD0084BDB7916
:1003D000BA7B9A4206D0064ABB7BD371BB7B63F0E3
:1003E0001F03FB73FB7B18461437BD4680BC704768
:1003F000A003002080B582B002AF00F067FC00F0DF
:100400003FF800F00DF900F081F800F0DFF800226D
:100410000C21322002F0C0FD0246124B1A6000226D
:100420000121322002F0B8FD02460F4B1A60002372
:100430000193002300930023C8220C490C4803F0C9
:10044000DAF900230193002300930023C82209490D
:10045000094803F0D0F9094BFF22DA7102F07EFC63
:10046000FEE700BFAC110020A8110020444C00089A
:100470005D0700084C4C0008F9060008A0030020A6
:1004800080B590B000AF07F118032822002118466C
:1004900004F0C3FB3B1D00221A605A609A60DA60C8
:1004A0001A610123BB614FF48033FB6100233B627F
:1004B0000123BB6202237B634FF48033BB634FF4A1
:1004C0004023FB6307F11803184601F0F9FB0346CC
:1004D000002B01D000F074FA0F237B600223BB6075
:1004E0000023FB604FF480633B6100237B613B1D75
:1004F0000121184601F064FE0346002B01D000F0F4
:100500005FFA00BF4037BD4680BD000080B500AF38
:100510002B4B2C4A1A602A4B08225A60284B002287
:100520009A60274B0022DA60254B4FF480321A6123
:10053000234B4FF480125A61214B00221A76204B34
:1005400000225A761E4B00229A761D4B0122DA7643
:100550001B4B00221A771A4B01225A77184800F0D9
:10056000E7FB0346002B01D000F02AFA164B0022CD
:100570001A61154B01229A61134B4FF478521A609D
:10058000114B4EF2C0725A600F4B45F6E0529A6022
:100590000D4B4FF4DE52DA600B4B0022DA610A4B4E
:1005A00001221A620849064800F0BDFC044800F028
:1005B00083FD0221024800F0D4FE00BF80BD00BFD1
:1005C0003C110020006400406411002080B500AFA1
:1005D000114B124A1A60104B4FF4E1325A600E4B25
:1005E00000229A600C4B0022DA600B4B00221A6149
:1005F000094B0C225A61084B00229A61064B0022DB
:10060000DA61054802F0F2F90346002B01D000F050
:10061000D7F900BF80BD00BFF8100020004800409F
:1006200080B588B000AF07F1100300221A605A604D
:100630009A60DA602D4B9B692C4A43F0100393615A
:100640002A4B9B6903F01003FB60FB68274B9B69F7
:10065000264A43F020039361244B9B6903F0200357
:10066000BB60BB68214B9B69204A43F00403936144
:100670001E4B9B6903F004037B607B681B4B9B69EB
:100680001A4A43F008039361184B9B6903F008036F
:100690003B603B6800224FF40051154801F0DEFA40
:1006A00000220421134801F0D9FA4FF400533B61B2
:1006B00001237B610023BB610223FB6107F110036F
:1006C00019460B4801F070F904233B6101237B615B
:1006D0000023BB610223FB6107F1100319460548A3
:1006E00001F062F900BF2037BD4680BD0010024016
:1006F000001001400008014080B584B000AF786070
:100700000023FB73124B1B6807F10E014FF0FF3201
:10071000184602F02BFE07F10E014FF4FA73012286
:100720000C4802F0B0F90346FB73FB7B002B05D1AC
:100730004FF40051084801F0A9FAE3E7044B1868A8
:1007400007F10E0101234FF0FF3202F081FCD9E7DF
:10075000A8110020F81000200010014080B588B0DA
:1007600000AF78600023FB740023FB74874B1B6889
:1007700007F114014FF0FF32184602F0F7FD844BE9
:100780001B68B3F5F87F0FD0B3F5F87F02D8DE2BE6
:1007900023D0F9E040F2EF22934200F0D98040F2FA
:1007A0003E7293422FD0EFE03B8B1846FFF712FDCD
:1007B0000346FB74774B1A79FB7C9A4200F0DD808C
:1007C000FA7C744B1A71744B186807F113010023FB
:1007D0004FF0FF3202F03CFCCFE03B7E1846FFF7C3
:1007E000C9FD0346FB74FB7C1B09DBB20E2B40F0FA
:1007F000C680694B186807F1130100234FF0FF32E0
:1008000002F026FCBBE0BA69624B1B689A4200F01A
:10081000B880604B1A68BB695340FB60BB695D4A96
:100820001360BB7B03F00403DBB2002B26D0BB7E3E
:10083000C3F38003D9B2574A537961F3000353716C
:10084000544B5B7903F00103DBB2002B02D0514B18
:1008500010221A714F4B5B79C3F30003DBB25BB21A
:1008600063F07F035BB2DBB2FB744B4B186807F19C
:10087000130100234FF0FF3202F0EAFB7B7B23F0F1
:100880007F03DBB2002B1CD07B7EC3F3C013D9B235
:10089000404A537961F3C30353713E4B5B79C3F311
:1008A000C003DBB25BB263F05F035BB2DBB2FB742D
:1008B000394B186807F1130100234FF0FF3202F0A3
:1008C000C7FBBB7B03F02003DBB2002B1CD0BB7E3D
:1008D000C3F34013D9B22F4A537961F30413537110
:1008E0002C4B5B79C3F30013DBB25BB263F06F0395
:1008F0005BB2DBB2FB74284B186807F113010023CD
:100900004FF0FF3202F0A4FB3B7B03F00203DBB2AB
:10091000002B36D03B7EC3F34003D9B21D4A537936
:1009200061F3410353711B4B5B79C3F34003DBB2AB
:100930005BB263F03F035BB2DBB2FB74164B18682B
:1009400007F1130100234FF0FF3202F081FB18E0A2
:100950003B7E1846FFF7A8FC0346FB74FB7C1B0993
:10096000DBB2072B0FD10C4B186807F113010023E2
:100970004FF0FF3202F06CFB05E000BFF4E600BF71
:10098000F2E600BFF0E600BFEEE600BFAC110020CB
:100990008C110020A0030020A811002080B582B097
:1009A00000AF78607B681B68044A934201D100F075
:1009B000A3F900BF0837BD4680BD00BF002C014031
:1009C00080B400AF00BFBD4680BC704780B485B026
:1009D00000AF154B9B69144A43F001039361124B1E
:1009E0009B6903F00103BB60BB680F4BDB690E4AD8
:1009F00043F08053D3610C4BDB6903F080537B6081
:100A00007B680A4B5B68FB60FB6823F0E063FB607C
:100A1000FB6843F00073FB60044AFB68536000BF4F
:100A20001437BD4680BC70470010024000000140F2
:100A300080B588B000AF786007F1100300221A601B
:100A40005A609A60DA607B681B68204A934239D109
:100A50001F4BDB691E4A43F00073D3611C4BDB69FB
:100A600003F00073FB60FB68194B9B69184A43F065
:100A700004039361164B9B6903F00403BB60BB68DE
:100A80004FF400633B6100237B610023BB6107F1EE
:100A9000100319460F4800F087FF4FF480533B6165
:100AA00002237B610323FB6107F110031946094808
:100AB00000F07AFF00220D21142000F04AFF1420DC
:100AC00000F063FF00BF2037BD4680BD00640040DA
:100AD000001002400008014080B588B000AF786087
:100AE00007F1100300221A605A609A60DA607B688E
:100AF0001B681C4A934231D11B4BDB691A4A43F4F1
:100B00008023D361184BDB6903F48023FB60FB680F
:100B1000154B9B69144A43F008039361124B9B6980
:100B200003F00803BB60BB684FF480633B610223A2
:100B30007B610323FB6107F1100319460B4800F0AA
:100B400033FF4FF400633B6100237B610023BB61F3
:100B500007F110031946054800F026FF00BF2037B3
:100B6000BD4680BD0048004000100240000C01401E
:100B700080B58CB000AF78600023FB620023BB62BD
:100B800000227968192000F0E4FE192000F0FDFE33
:100B90001E4B9B691D4A43F4006393611B4B9B6989
:100BA00003F40063FB60FB6807F1100207F1140314
:100BB0001146184601F082FC01F06CFCF862FB6AF9
:100BC000134AA2FB03239B0C013BBB62114B124A4D
:100BD0001A60104B40F2E732DA600E4ABB6A53608B
:100BE0000C4B00221A610B4B00229A60094801F05D
:100BF000B3FC0346002B04D1064801F005FD034673
:100C000000E0012318463037BD4680BD0010024089
:100C100083DE1B43B0110020002C014080B400AFE4
:100C200000BFBD4680BC704780B400AFFEE780B413
:100C300000AFFEE780B400AFFEE780B400AFFEE790
:100C400080B400AF00BFBD4680BC704780B500AF28
:100C5000024800F0ABFB00BF80BD00BF3C1100208C
:100C600080B500AF024801F021FD00BF80BD00BF8C
:100C7000B011002080B400AF00BFBD4680BC7047FB
:100C80000C480D490D4A002302E0D458C4500433E7
:100C9000C4188C42F9D30A4A0A4C002301E01360BD
:100CA0000432A242FBD3FFF7E5FF03F087FFFFF713
:100CB000A1FB70470000002010000020904C0008AD
:100CC00010000020FC110020FEE7000080B500AFFE
:100CD000084B1B68074A43F010031360032000F021
:100CE0002DFE0020FFF744FFFFF770FE002318469B
:100CF00080BD00BF0020024080B400AF054B1B78D0
:100D00001A46054B1B681344034A136000BFBD46D7
:100D100080BC704708000020F811002080B400AFAC
:100D2000024B1B681846BD4680BC7047F811002076
:100D300080B584B000AF78607B68002B01D10123BF
:100D4000EDE07B6893F82030DBB2002B02D17868AD
:100D5000FFF76EFE7B681B681A687B681B6842F0B1
:100D600001021A60FFF7DAFFF86012E0FFF7D6FF22
:100D70000246FB68D31A0A2B0BD97B685B6A43F4E3
:100D800000327B685A627B68052283F820200123A9
:100D9000C5E07B681B685B6803F00103002BE5D0AE
:100DA0007B681B681A687B681B6822F002021A6065
:100DB000FFF7B4FFF86012E0FFF7B0FF0246FB68F0
:100DC000D31A0A2B0BD97B685B6A43F400327B6829
:100DD0005A627B68052283F8202001239FE07B680C
:100DE0001B685B6803F00203002BE5D17B681B7E68
:100DF000012B08D17B681B681A687B681B6842F06E
:100E000080021A6007E07B681B681A687B681B68B1
:100E100022F080021A607B685B7E012B08D17B6820
:100E20001B681A687B681B6842F040021A6007E082
:100E30007B681B681A687B681B6822F040021A6096
:100E40007B689B7E012B08D17B681B681A687B68D6
:100E50001B6842F020021A6007E07B681B681A6872
:100E60007B681B6822F020021A607B68DB7E012B06
:100E700008D17B681B681A687B681B6822F0100227
:100E80001A6007E07B681B681A687B681B6842F081
:100E900010021A607B681B7F012B08D17B681B68DE
:100EA0001A687B681B6842F008021A6007E07B68DA
:100EB0001B681A687B681B6822F008021A607B684E
:100EC0005B7F012B08D17B681B681A687B681B68F5
:100ED00042F004021A6007E07B681B681A687B68AE
:100EE0001B6822F004021A607B689A687B68DB68E2
:100EF0001A437B681B691A437B685B6942EA0301FA
:100F00007B685B685A1E7B681B680A43DA617B68F2
:100F100000225A627B68012283F8202000231846B1
:100F20001037BD4680BD80B487B000AF78603960AF
:100F30007B681B687B617B6893F82030FB74FB7CCB
:100F4000012B03D0FB7C022B40F0AA807B69D3F8F5
:100F5000003243F001027B69C3F800223B685B6901
:100F600003F01F03012202FA03F3FB607B69D3F84D
:100F70001C22FB68DB431A407B69C3F81C223B68D8
:100F8000DB69002B23D17B69D3F80C22FB68DB43A0
:100F90001A407B69C3F80C223B68DB6819043B6884
:100FA0005B689BB23A68526919437B69483243F8DF
:100FB00032103B689B6819043B681B689AB23B6817
:100FC0005B690A4379694833DB000B445A603B682C
:100FD000DB69012B22D17B69D3F80C22FB681A4311
:100FE0007B69C3F80C223B681B6819043B685B688B
:100FF0009BB23A68526919437B69483243F8321010
:101000003B689B6819043B68DB689AB23B685B6984
:101010000A4379694833DB000B445A603B689B699B
:10102000002B09D17B69D3F80422FB68DB431A400B
:101030007B69C3F8042207E07B69D3F80422FB68CC
:101040001A437B69C3F804223B681B69002B09D152
:101050007B69D3F81422FB68DB431A407B69C3F831
:10106000142207E07B69D3F81422FB681A437B69DA
:10107000C3F814223B681B6A012B07D17B69D3F8A4
:101080001C22FB681A437B69C3F81C227B69D3F8D6
:10109000003223F001027B69C3F80022002306E03E
:1010A0007B685B6A43F480227B685A62012318469E
:1010B0001C37BD4680BC704780B584B000AF7860F7
:1010C0007B6893F82030DBB2012B2ED17B680222A3
:1010D00083F820207B681B681A687B681B6822F0F5
:1010E00001021A60FFF71AFEF86012E0FFF716FE21
:1010F0000246FB68D31A0A2B0BD97B685B6A43F460
:1011000000327B685A627B68052283F82020012325
:1011100012E07B681B685B6803F00103002BE5D1DC
:101120007B6800225A62002306E07B685B6A43F416
:1011300000227B685A62012318461037BD4680BDE5
:1011400080B487B000AFF860B9607A603B60FB683C
:1011500093F82030FB75FB7D012B03D0FB7D022B28
:1011600040F0F380BB68002B0ED1FB681B68DB6886
:1011700003F00303002B16D1FB685B6A43F40012F3
:10118000FB685A620123E7E0FB681B681B6903F0F8
:101190000303002B07D1FB685B6A43F40012FB6872
:1011A0005A620123D8E0FB681A68BB681B331B0135
:1011B00013441B6803F004027B689A607B689B6899
:1011C000002B0CD1FB681A68BB681B331B0113444E
:1011D0001B685B0DC3F30A027B681A600BE0FB68B7
:1011E0001A68BB681B331B0113441B68DB0823F020
:1011F00060427B685A60FB681A68BB681B331B013E
:1012000013441B6803F002027B68DA60FB681A680B
:10121000BB681B331B01134404331B6803F00F022C
:101220007B681A61FB681A68BB681B331B01134497
:1012300004331B681B0ADAB27B689A61FB681A6880
:10124000BB681B331B01134404331B681B0C9AB28D
:101250007B685A61FB681A68BB681B01134403F57D
:10126000DC731B68DAB23B681A70FB681A68BB68EB
:101270001B01134403F5DC731B681A0A3B68013336
:10128000D2B21A70FB681A68BB681B01134403F5DD
:10129000DC731B681A0C3B680233D2B21A70FB680D
:1012A0001A68BB681B01134403F5DC731B681A0E34
:1012B0003B680333D2B21A70FB681A68BB681B0123
:1012C000134403F5DE731A683B680433D2B21A7014
:1012D000FB681A68BB681B01134403F5DE731B68C7
:1012E0001A0A3B680533D2B21A70FB681A68BB68E9
:1012F0001B01134403F5DE731B681A0C3B680633AD
:10130000D2B21A70FB681A68BB681B01134403F55C
:10131000DE731B681A0E3B680733D2B21A70BB68C3
:10132000002B08D1FB681B68DA68FB681B6842F079
:101330002002DA6007E0FB681B681A69FB681B681B
:1013400042F020021A61002306E0FB685B6A43F466
:101350008022FB685A62012318461C37BD4680BCB8
:10136000704780B485B000AF786039607B6893F8CF
:101370002030FB73FB7B012B02D0FB7B022B09D1BE
:101380007B681B6859697B681B683A680A435A6125
:10139000002306E07B685B6A43F480227B685A6224
:1013A000012318461437BD4680BC704780B58AB00B
:1013B00000AF786000237B627B681B685B693B62DF
:1013C0007B681B685B68FB617B681B689B68BB6113
:1013D0007B681B68DB687B617B681B681B693B6102
:1013E0007B681B689B69FB603B6A03F00103002B71
:1013F0007CD0BB6903F00103002B23D07B681B6802
:1014000001229A60BB6903F00203002B03D07868C5
:1014100000F07DF916E0BB6903F00403002B04D053
:101420007B6A43F400637B620CE0BB6903F0080352
:10143000002B04D07B6A43F480537B6202E078681F
:1014400000F080F9BB6903F48073002B24D07B6823
:101450001B684FF480729A60BB6903F40073002B21
:1014600003D0786800F05CF916E0BB6903F4806390
:10147000002B04D07B6A43F400537B620CE0BB6911
:1014800003F40063002B04D07B6A43F480437B6247
:1014900002E0786800F05FF9BB6903F48033002B49
:1014A00024D07B681B684FF480329A60BB6903F4D8
:1014B0000033002B03D0786800F03BF916E0BB69DD
:1014C00003F48023002B04D07B6A43F400437B6247
:1014D0000CE0BB6903F40023002B04D07B6A43F4C7
:1014E00080337B6202E0786800F03EF93B6A03F0EB
:1014F0000803002B0CD07B6903F01003002B07D0EE
:101500007B6A43F400737B627B681B681022DA609D
:101510003B6A03F00403002B0BD07B6903F0080344
:10152000002B06D07B681B680822DA60786800F020
:1015300024F93B6A03F00203002B09D07B681B6887
:10154000DB6803F00303002B02D07868FEF718FE77
:101550003B6A03F04003002B0CD03B6903F01003FF
:10156000002B07D07B6A43F480637B627B681B6837
:1015700010221A613B6A03F02003002B0BD03B6959
:1015800003F00803002B06D07B681B6808221A6151
:10159000786800F004F93B6A03F01003002B09D0CF
:1015A0007B681B681B6903F00303002B02D078687B
:1015B00000F0ECF83B6A03F40033002B0BD0FB691E
:1015C00003F01003002B06D07B681B6810225A60C2
:1015D000786800F0EDF83B6A03F48033002B0BD001
:1015E000FB6903F00803002B06D07B681B68082208
:1015F0005A60786800F0E5F83B6A03F40043002B7A
:1016000075D0FB6903F00403002B6CD03B6A03F434
:101610008073002B08D0FB6803F00103002B03D07C
:101620007B6A43F001037B623B6A03F40073002B87
:1016300008D0FB6803F00203002B03D07B6A43F061
:1016400002037B623B6A03F48063002B08D0FB68D3
:1016500003F00403002B03D07B6A43F004037B6296
:101660003B6A03F40063002B3DD0FB6803F070037A
:10167000002B38D0FB6803F07003302B17D0302BD1
:1016800004D8102B09D0202B0CD024E0502B18D0DC
:10169000602B1BD0402B0FD01DE07B6A43F008036A
:1016A0007B6218E07B6A43F010037B6213E07B6A85
:1016B00043F020037B620EE07B6A43F040037B62D1
:1016C00009E07B6A43F080037B6204E07B6A43F4B9
:1016D00080737B6200BF7B681B689A697B681B68AC
:1016E00022F070029A617B681B6804225A607B6A50
:1016F000002B08D07B685A6A7B6A1A437B685A625F
:10170000786800F067F800BF2837BD4680BD80B418
:1017100083B000AF786000BF0C37BD4680BC704717
:1017200080B483B000AF786000BF0C37BD4680BC8A
:10173000704780B483B000AF786000BF0C37BD46FF
:1017400080BC704780B483B000AF786000BF0C37B6
:10175000BD4680BC704780B483B000AF786000BFE6
:101760000C37BD4680BC704780B483B000AF786052
:1017700000BF0C37BD4680BC704780B483B000AF5B
:10178000786000BF0C37BD4680BC704780B483B022
:1017900000AF786000BF0C37BD4680BC704780B496
:1017A00083B000AF786000BF0C37BD4680BC704787
:1017B00080B483B000AF786000BF0C37BD4680BCFA
:1017C000704780B483B000AF786000BF0C37BD466F
:1017D00080BC704780B483B000AF786000BF0C3726
:1017E000BD4680BC7047000080B485B000AF786013
:1017F0007B6803F00703FB600C4BDB68BB60BA68D7
:101800004FF6FF031340BB60FB681A02BB6813432B
:1018100043F0BF6343F40033BB60044ABB68D3604A
:1018200000BF1437BD4680BC704700BF00ED00E02C
:1018300080B400AF044BDB681B0A03F007031846B3
:10184000BD4680BC704700BF00ED00E080B483B0AF
:1018500000AF0346FB7197F90730002B0BDBFB79D8
:1018600003F01F02064997F907305B09012000FACF
:1018700002F241F8232000BF0C37BD4680BC704700
:1018800000E100E080B483B000AF03463960FB7133
:1018900097F90730002B0ADB3B68DAB20C4997F95D
:1018A00007301201D2B20B4483F800230AE03B68F0
:1018B000DAB20849FB7903F00F03043B1201D2B2FC
:1018C0000B441A7600BF0C37BD4680BC704700BF82
:1018D00000E100E000ED00E080B489B000AFF86006
:1018E000B9607A60FB6803F00703FB61FB69C3F131
:1018F0000703042B28BF0423BB61FB690433062BB9
:1019000002D9FB69033B00E000237B614FF0FF320B
:10191000BB6902FA03F3DA43BB681A407B699A4059
:101920004FF0FF317B6901FA03F3D9437B680B4029
:10193000134318462437BD4680BC704780B582B03B
:1019400000AF78607868FFF74FFF00BF0837BD46EB
:1019500080BD80B586B000AF0346B9607A60FB7386
:1019600000237B61FFF764FF78617A68B968786962
:10197000FFF7B2FF024697F90F3011461846FFF7FE
:1019800081FF00BF1837BD4680BD80B582B000AF73
:101990000346FB7197F907301846FFF757FF00BF62
:1019A0000837BD4680BD000080B48BB000AF7860C2
:1019B000396000237B6200233B6227E101227B6ABE
:1019C00002FA03F3FB613B681B68FA691340BB61D1
:1019D000BA69FB699A4240F016813B685B68122B3A
:1019E00034D0122B0DD8022B2BD0022B04D8002B75
:1019F00031D0012B1CD048E0032B43D0112B1BD03E
:101A000043E0894A934226D0874A934206D8874AC0
:101A1000934220D0864A93421DD036E0854A9342B5
:101A200019D0854A934216D0844A934213D02CE0B1
:101A30003B68DB683B6228E03B68DB6804333B6261
:101A400023E03B68DB6808333B621EE03B68DB68F1
:101A50000C333B6219E03B689B68002B02D10423E6
:101A60003B6212E03B689B68012B05D108233B6277
:101A70007B68FA691A6108E008233B627B68FA69AF
:101A80005A6102E000233B6200BFBB69FF2B01D813
:101A90007B6801E07B6804337B61BB69FF2B02D864
:101AA0007B6A9B0002E07B6A083B9B003B617B6991
:101AB0001A680F213B6901FA03F3DB431A40396AC4
:101AC0003B6901FA03F31A437B691A603B685B6860
:101AD00003F08053002B00F09680594B9B69584AC5
:101AE00043F001039361564B9B6903F00103BB6014
:101AF000BB68544A7B6A9B08023352F82330FB6070
:101B00007B6A03F003039B000F2202FA03F3DB431B
:101B1000FA681340FB607B684B4A934213D07B68A2
:101B20004A4A93420DD07B68494A934207D07B686A
:101B3000484A934201D1032306E0042304E0022330
:101B400002E0012300E000237A6A02F0030292001F
:101B50009340FA681343FB603A497B6A9B0802335F
:101B6000FA6841F823203B685B6803F48033002B5C
:101B700006D0394B1A683849BB6913430B6006E03D
:101B8000354B1A68BB69DB43334913400B603B6834
:101B90005B6803F40033002B06D02F4B5A682E49A4
:101BA000BB6913434B6006E02B4B5A68BB69DB43B0
:101BB000294913404B603B685B6803F48013002B9A
:101BC00006D0254B9A682449BB6913438B6006E015
:101BD000214B9A68BB69DB431F4913408B603B680C
:101BE0005B6803F40013002B06D01B4BDA681A491C
:101BF000BB691343CB6006E0174BDA68BB69DB4374
:101C000015491340CB607B6A01337B623B681A68DD
:101C10007B6A22FA03F3002B7FF4D0AE00BF2C378F
:101C2000BD4680BC704700BF0000211000001110AD
:101C300000001210000031100000321000002210CD
:101C4000001002400000014000080140000C01406B
:101C500000100140001401400004014080B483B032
:101C600000AF78600B467B8013467B707B78002B3F
:101C700003D07A887B681A6103E07B881A047B684A
:101C80001A6100BF0C37BD4680BC704780B485B078
:101C900000AF78600B467B807B68DB68FB607A88EE
:101CA000FB6813401A04FB68D9437B880B401A4336
:101CB0007B681A6100BF1437BD4680BC70470000C6
:101CC00080B586B000AF78607B68002B01D101231E
:101CD0006CE27B681B6803F00103002B00F0878037
:101CE000924B5B6803F00C03042B0CD08F4B5B68AA
:101CF00003F00C03082B12D18C4B5B6803F4803388
:101D0000B3F5803F0BD1894B1B6803F40033002BE4
:101D10006CD07B685B68002B68D1012346E27B684E
:101D20005B68B3F5803F06D1804B1B687F4A43F464
:101D3000803313602EE07B685B68002B0CD17B4BFB
:101D40001B687A4A23F480331360784B1B68774A08
:101D500023F4802313601DE07B685B68B3F5A02F3C
:101D60000CD1724B1B68714A43F4802313606F4B94
:101D70001B686E4A43F4803313600BE06B4B1B68A7
:101D80006A4A23F480331360684B1B68674A23F464
:101D9000802313607B685B68002B13D0FEF7BEFFC7
:101DA000386108E0FEF7BAFF02463B69D31A642B9C
:101DB00001D90323FAE15D4B1B6803F40033002BC8
:101DC000F0D014E0FEF7AAFF386108E0FEF7A6FFA6
:101DD00002463B69D31A642B01D90323E6E1534B36
:101DE0001B6803F40033002BF0D100E000BF7B68D8
:101DF0001B6803F00203002B63D04C4B5B6803F0BD
:101E00000C03002B0BD0494B5B6803F00C03082B31
:101E10001CD1464B5B6803F48033002B16D1434B37
:101E20001B6803F00203002B05D07B681B69012BA4
:101E300001D00123BAE13D4B1B6823F0F8027B6817
:101E40005B69DB00394913430B603AE07B681B692F
:101E5000002B20D0364B01221A60FEF75FFF38615D
:101E600008E0FEF75BFF02463B69D31A022B01D95B
:101E700003239BE12D4B1B6803F00203002BF0D0E2
:101E80002A4B1B6823F0F8027B685B69DB0027495B
:101E900013430B6015E0264B00221A60FEF73EFF4D
:101EA000386108E0FEF73AFF02463B69D31A022B7D
:101EB00001D903237AE11D4B1B6803F00203002BB9
:101EC000F0D17B681B6803F00803002B3AD07B68D5
:101ED0009B69002B19D0174B01221A60FEF71EFFD9
:101EE000386108E0FEF71AFF02463B69D31A022B5D
:101EF00001D903235AE10D4B5B6A03F00203002B67
:101F0000F0D0012000F00AFB1CE00A4B00221A600E
:101F1000FEF704FF38610FE0FEF700FF02463B6961
:101F2000D31A022B08D9032340E100BF001002405E
:101F300000004242800442429E4B5B6A03F002036F
:101F4000002BE9D17B681B6803F00403002B00F031
:101F5000A6800023FB75974BDB6903F08053002BB1
:101F60000DD1944BDB69934A43F08053D361914B7D
:101F7000DB6903F08053BB60BB680123FB758E4BAC
:101F80001B6803F48073002B18D18B4B1B688A4AA3
:101F900043F480731360FEF7C1FE386108E0FEF77A
:101FA000BDFE02463B69D31A642B01D90323FDE031
:101FB000814B1B6803F48073002BF0D07B68DB68D7
:101FC000012B06D17B4B1B6A7A4A43F00103136253
:101FD0002DE07B68DB68002B0CD1764B1B6A754AC1
:101FE00023F001031362734B1B6A724A23F004034C
:101FF00013621CE07B68DB68052B0CD16D4B1B6A00
:102000006C4A43F0040313626A4B1B6A694A43F04B
:10201000010313620BE0674B1B6A664A23F001035E
:102020001362644B1B6A634A23F0040313627B68E8
:10203000DB68002B15D0FEF771FE38610AE0FEF771
:102040006DFE02463B69D31A41F28832934201D9B0
:102050000323ABE0574B1B6A03F00203002BEED0C7
:1020600014E0FEF75BFE38610AE0FEF757FE024619
:102070003B69D31A41F28832934201D9032395E098
:102080004C4B1B6A03F00203002BEED1FB7D012BAE
:1020900005D1484BDB69474A23F08053D3617B6805
:1020A000DB69002B00F08180424B5B6803F00C037E
:1020B000082B61D07B68DB69022B46D13F4B0022A5
:1020C0001A60FEF72BFE386108E0FEF727FE024695
:1020D0003B69D31A022B01D9032367E0354B1B68F8
:1020E00003F00073002BF0D17B681B6AB3F5803FCF
:1020F00008D1304B5B6823F400327B689B682D4924
:1021000013434B602B4B5B6823F474127B68196A92
:102110007B685B6A0B43274913434B60274B0122C3
:102120001A60FEF7FBFD386108E0FEF7F7FD024696
:102130003B69D31A022B01D9032337E01D4B1B68DF
:1021400003F00073002BF0D02FE01C4B00221A602C
:10215000FEF7E4FD386108E0FEF7E0FD02463B696A
:10216000D31A022B01D9032320E0124B1B6803F082
:102170000073002BF0D118E07B68DB69012B01D1E3
:10218000012313E00B4B5B68FB60FB6803F48032B8
:102190007B681B6A9A4206D1FB6803F470127B6865
:1021A0005B6A9A4201D0012300E0002318461837E9
:1021B000BD4680BD001002400070004060004242F9
:1021C00080B584B000AF786039607B68002B01D1A6
:1021D0000123D0E06A4B1B6803F007033A689A4278
:1021E00010D9674B1B6823F0070265493B6813430E
:1021F0000B60634B1B6803F007033A689A4201D0F7
:102200000123B8E07B681B6803F00203002B20D099
:102210007B681B6803F00403002B05D0594B5B68F7
:10222000584A43F4E06353607B681B6803F008037B
:10223000002B05D0534B5B68524A43F46053536004
:10224000504B5B6823F0F0027B689B684D49134359
:102250004B607B681B6803F00103002B40D07B6858
:102260005B68012B07D1474B1B6803F40033002B3D
:1022700015D101237FE07B685B68022B07D1414BBE
:102280001B6803F00073002B09D1012373E03D4B61
:102290001B6803F00203002B01D101236BE0394BD3
:1022A0005B6823F003027B685B68364913434B602D
:1022B000FEF734FDF8600AE0FEF730FD0246FB68E9
:1022C000D31A41F28832934201D9032353E02D4BB4
:1022D0005B6803F00C027B685B689B009A42EBD161
:1022E000274B1B6803F007033A689A4210D2244B2D
:1022F0001B6823F0070222493B6813430B60204B05
:102300001B6803F007033A689A4201D0012332E0C8
:102310007B681B6803F00403002B08D0194B5B6833
:1023200023F4E0627B68DB68164913434B607B68EB
:102330001B6803F00803002B09D0124B5B6823F4E1
:1023400060527B681B69DB000E4913434B6000F051
:1023500021F801460B4B5B681B0903F00F030A4A87
:10236000D35C21FA03F3094A1360094B1B68184632
:10237000FEF7FEFB002318461037BD4680BD00BFA8
:102380000020024000100240704C000800000020B5
:102390000400002090B48AB000AF2A4B3C1D0FCB44
:1023A00084E80F00284B1B883B800023FB6100233F
:1023B000BB6100237B6200237B6100233B62234BD4
:1023C0005B68FB61FB6903F00C03042B02D0082B54
:1023D00003D02DE01E4B3B622DE0FB699B0C03F00C
:1023E0000F0307F12802134413F8243C7B61FB69B7
:1023F00003F48033002B13D0144B5B685B0C03F0A9
:10240000010307F12802134413F8283CBB617B69E0
:102410000F4A02FB03F2BB69B2FBF3F37B6204E0F9
:102420007B690C4A02FB03F37B627B6A3B6202E03E
:10243000074B3B6200BF3B6A18462837BD4690BC3D
:10244000704700BF544C0008644C00080010024064
:1024500000127A0000093D0080B400AF024B1B68F7
:102460001846BD4680BC70470000002080B500AF14
:10247000FFF7F2FF0146054B5B681B0A03F00703F9
:10248000034AD35C21FA03F3184680BD00100240D2
:10249000804C000880B500AFFFF7DEFF0146054B1A
:1024A0005B68DB0A03F00703034AD35C21FA03F3FA
:1024B000184680BD00100240804C000880B483B0F4
:1024C00000AF786039607B680F221A60114B5B683F
:1024D00003F003027B685A600E4B5B6803F0F00266
:1024E0007B689A600B4B5B6803F4E0627B68DA60A0
:1024F000084B5B68DB0803F4E0627B681A61064BFB
:102500001B6803F007023B681A6000BF0C37BD462A
:1025100080BC7047001002400020024080B485B0AB
:1025200000AF78600A4B1B680A4AA2FB03235B0AD0
:102530007A6802FB03F3FB6000BFFB685A1EFA6077
:10254000002BF9D100BF1437BD4680BC704700BFD7
:1025500000000020D34D621080B582B000AF7860DB
:102560007B68002B01D1012341E07B6893F83D306B
:10257000DBB2002B06D17B68002283F83C20786810
:1025800000F039F87B68022283F83D207B681A68E6
:102590007B6804331946104600F0B4F97B680122C9
:1025A00083F846207B68012283F83E207B68012265
:1025B00083F83F207B68012283F840207B6801225A
:1025C00083F841207B68012283F842207B68012246
:1025D00083F843207B68012283F844207B68012232
:1025E00083F845207B68012283F83D2000231846AC
:1025F0000837BD4680BD80B483B000AF786000BFAF
:102600000C37BD4680BC704780B485B000AF7860A1
:102610007B6893F83D30DBB2012B01D001233AE017
:102620007B68022283F83D207B681B68DA687B6840
:102630001B6842F00102DA607B681B68184A93420B
:102640000ED07B681B68B3F1804F09D07B681B6894
:10265000144A934204D07B681B68134A934211D1F9
:102660007B681B689B6803F00703FB60FB68062B15
:1026700010D07B681B681A687B681B6842F00102F7
:102680001A6007E07B681B681A687B681B6842F069
:1026900001021A60002318461437BD4680BC7047FB
:1026A000002C0140000400400008004080B582B0CA
:1026B00000AF78607B681B681B6903F00203022B84
:1026C00022D17B681B68DB6803F00203022B1BD15D
:1026D0007B681B686FF002021A617B6801221A771F
:1026E0007B681B689B6903F00303002B03D07868A9
:1026F00000F0EDF805E0786800F0E0F8786800F0A8
:10270000EFF87B6800221A777B681B681B6903F06F
:102710000403042B22D17B681B68DB6803F00403ED
:10272000042B1BD17B681B686FF004021A617B6865
:1027300002221A777B681B689B6903F44073002BA5
:1027400003D0786800F0C3F805E0786800F0B6F8C8
:10275000786800F0C5F87B6800221A777B681B68F0
:102760001B6903F00803082B22D17B681B68DB6818
:1027700003F00803082B1BD17B681B686FF008026D
:102780001A617B6804221A777B681B68DB6903F097
:102790000303002B03D0786800F099F805E078680F
:1027A00000F08CF8786800F09BF87B6800221A77BC
:1027B0007B681B681B6903F01003102B22D17B6818
:1027C0001B68DB6803F01003102B1BD17B681B68B0
:1027D0006FF010021A617B6808221A777B681B6809
:1027E000DB6903F44073002B03D0786800F06FF8C6
:1027F00005E0786800F062F8786800F071F87B68AE
:1028000000221A777B681B681B6903F00103012B08
:102810000ED17B681B68DB6803F00103012B07D135
:102820007B681B686FF001021A617868FEF7B6F8E2
:102830007B681B681B6903F08003802B0ED17B68CB
:102840001B68DB6803F08003802B07D17B681B6863
:102850006FF080021A61786800F0BFF87B681B682F
:102860001B6903F04003402B0ED17B681B68DB68BB
:1028700003F04003402B07D17B681B686FF04002D8
:102880001A61786800F035F87B681B681B6903F0F3
:102890002003202B0ED17B681B68DB6803F020032C
:1028A000202B07D17B681B686FF020021A617868C3
:1028B00000F08AF800BF0837BD4680BD80B483B001
:1028C00000AF786000BF0C37BD4680BC704780B455
:1028D00083B000AF786000BF0C37BD4680BC704746
:1028E00080B483B000AF786000BF0C37BD4680BCB9
:1028F000704780B483B000AF786000BF0C37BD462E
:1029000080BC704780B485B000AF786039607B6868
:102910001B68FB607B68294A93420BD07B68B3F14C
:10292000804F07D07B68264A934203D07B68254AB4
:10293000934208D1FB6823F07003FB603B685B683F
:10294000FA681343FB607B681C4A93420BD07B6898
:10295000B3F1804F07D07B68194A934203D07B685C
:10296000184A934208D1FB6823F44073FB603B682C
:10297000DB68FA681343FB60FB6823F080023B6866
:102980005B691343FB607B68FA681A603B689A686E
:102990007B68DA623B681A687B689A627B68074AE0
:1029A000934203D13B681A697B681A637B680122F2
:1029B0005A6100BF1437BD4680BC7047002C0140EF
:1029C000000400400008004080B483B000AF78608D
:1029D00000BF0C37BD4680BC704780B483B000AFE9
:1029E000786000BF0C37BD4680BC704780B582B0B0
:1029F00000AF78607B68002B01D101233FE07B684A
:102A000093F83D30DBB2002B06D17B68002283F8BF
:102A10003C207868FEF760F87B68242283F83D202C
:102A20007B681B68DA687B681B6822F40052DA60F6
:102A3000786800F005F97B681B681A697B681B6879
:102A400022F490421A617B681B685A697B681B6894
:102A500022F02A025A617B681B68DA687B681B686F
:102A600042F40052DA607B6800221A647B682022FC
:102A700083F83D207B68202283F83E2000231846FF
:102A80000837BD4680BD80B58AB002AFF860B96036
:102A90003B601346FB8000237B61FB6893F83D306D
:102AA000DBB2202B7CD1BB68002B02D0FB88002B33
:102AB00001D1012375E0FB6893F83C30012B01D173
:102AC00002236EE0FB68012283F83C20FB680022B1
:102AD0001A64FB68212283F83D20FEF71FF9786114
:102AE000FB68FA889A84FB68FA88DA84FB689B683A
:102AF000B3F5805F08D1FB681B69002B04D100236C
:102B0000FB61BB68BB6103E0BB68FB610023BB6189
:102B1000FB68002283F83C202AE03B6800937B6935
:102B200000228021F86800F040F80346002B01D015
:102B3000032336E0FB69002B0BD1BB691B881A46C7
:102B4000FB681B68C2F308025A60BB690233BB61B1
:102B500007E0FB691A78FB681B685A60FB69013360
:102B6000FB61FB68DB8C9BB2013B9AB2FB68DA84A9
:102B7000FB68DB8C9BB2002BCFD13B6800937B6959
:102B800000224021F86800F010F80346002B01D025
:102B9000032306E0FB68202283F83D20002300E0A9
:102BA000022318462037BD4680BD80B584B000AFF3
:102BB000F860B9603B601346FB712CE0BB69B3F170
:102BC000FF3F28D0BB69002B07D0FEF7A7F80246CD
:102BD0003B68D31ABA699A421DD2FB681B68DA684F
:102BE000FB681B6822F4D072DA60FB681B685A69C4
:102BF000FB681B6822F001025A61FB68202283F8FF
:102C00003D20FB68202283F83E20FB68002283F8E9
:102C10003C2003230FE0FB681B681A68BB68134065
:102C2000BA689A420CBF01230023DBB21A46FB7933
:102C30009A42C3D0002318461037BD4680BD00001D
:102C400080B584B000AF78607B681B681B6923F493
:102C500040517B68DA687B681B680A431A617B68AD
:102C60009A687B681B691A437B685B691343BB6086
:102C70007B681B68DB6823F4B05323F00C037A688D
:102C80001268B9680B43D3607B681B685B6923F4E7
:102C900040717B689A697B681B680A435A617B684C
:102CA0001B682C4A934203D1FFF7F4FBF86002E063
:102CB000FFF7DCFBF860FA6813469B0013449A00A8
:102CC0001A447B685B689B00B2FBF3F3224AA2FBC9
:102CD00003235B091901FA6813469B0013449A0009
:102CE0001A447B685B689B00B2FBF3F21A4BA3FBB0
:102CF00002035B09642000FB03F3D31A1B01323388
:102D0000154AA2FB03235B0903F0F0031944FA6898
:102D100013469B0013449A001A447B685B689B002F
:102D2000B2FBF3F20C4BA3FB02035B09642000FB34
:102D300003F3D31A1B013233074AA2FB03235B09B7
:102D400003F00F027B681B680A449A6000BF1037CB
:102D5000BD4680BD003801401F85EB5180B500AFF6
:102D600000F076FE0023184680BD80B483B000AF2B
:102D700078607B6803F108027B685A607B684FF0DB
:102D8000FF329A607B6803F108027B68DA607B6837
:102D900003F108027B681A617B6800221A6000BF99
:102DA0000C37BD4680BC704780B483B000AF7860FC
:102DB0007B6800221A6100BF0C37BD4680BC70479B
:102DC00080B485B000AF786039607B685B68FB6079
:102DD0003B68FA685A60FB689A683B689A60FB68CF
:102DE0009B683A685A60FB683A689A603B687A6800
:102DF0001A617B681B685A1C7B681A6000BF143715
:102E0000BD4680BC704780B485B000AF7860396043
:102E10003B681B68BB60BB68B3F1FF3F03D17B68B5
:102E20001B69FB600CE07B680833FB6002E0FB6819
:102E30005B68FB60FB685B681B68BA689A42F6D205
:102E4000FB685A683B685A603B685B683A689A60FE
:102E50003B68FA689A60FB683A685A603B687A682F
:102E60001A617B681B685A1C7B681A6000BF1437A4
:102E7000BD4680BC704780B485B000AF78607B6889
:102E80001B69FB607B685B687A6892689A607B6804
:102E90009B687A6852685A60FB685B687A689A42F5
:102EA00003D17B689A68FB685A607B6800221A61CC
:102EB000FB681B685A1EFB681A60FB681B68184693
:102EC0001437BD4680BC704780B584B000AF7860D1
:102ED00039607B68FB60FB68002B09D14FF0500321
:102EE00083F31188BFF36F8FBFF34F8FBB60FEE793
:102EF00001F09AFBFB681A68FB68DB6BF968096CE8
:102F000001FB03F31A44FB685A60FB6800229A63D2
:102F1000FB681A68FB689A60FB681A68FB68DB6BE1
:102F2000013BF968096C01FB03F31A44FB68DA60A2
:102F3000FB68FF2283F84420FB68FF2283F84520CA
:102F40003B68002B14D1FB681B69002B1AD0FB686F
:102F50001033184600F0BEFF0346002B12D00D4B75
:102F60004FF080521A60BFF34F8FBFF36F8F09E0AD
:102F7000FB6810331846FFF7F8FEFB682433184649
:102F8000FFF7F3FE01F07EFB012318461037BD4624
:102F900080BD00BF04ED00E080B58AB002AFF860EC
:102FA000B9601346FB71FB68002B09D14FF0500349
:102FB00083F31188BFF36F8FBFF34F8F3B61FEE741
:102FC000BB68002B02D10023FB6104E0FB68BA68F8
:102FD00002FB03F3FB61FB694833184601F01AFC5E
:102FE000B861BB69002B0FD0BB6948337B61BB69FB
:102FF000002283F84620FA79BB69009313467A6968
:10300000B968F86800F005F8BB6918462037BD4676
:1030100080BD80B584B000AFF860B9607A60FB70A5
:10302000BB68002B03D1BB69BA691A6002E0BB69B7
:103030007A681A60BB69FA68DA63BB69BA681A64AD
:103040000121B869FFF740FF00BF1037BD4680BDC2
:1030500080B58EB000AFF860B9607A603B60002345
:103060007B63FB683B633B6B002B09D14FF0500344
:1030700083F31188BFF36F8FBFF34F8FBB62FEE7FF
:10308000BB68002B03D13B6B1B6C002B01D10123D0
:1030900000E00023002B09D14FF0500383F3118887
:1030A000BFF36F8FBFF34F8F7B62FEE73B68022B4E
:1030B00003D13B6BDB6B012B01D1012300E000232B
:1030C000002B09D14FF0500383F31188BFF36F8FAA
:1030D000BFF34F8F3B62FEE701F0B6F80346002BCB
:1030E00002D17B68002B01D1012300E00023002BDB
:1030F00009D14FF0500383F31188BFF36F8FBFF3F3
:103100004F8FFB61FEE701F08FFA3B6B9A6B3B6BD5
:10311000DB6B9A4202D33B68022B29D13A68B9682B
:10312000386B00F0FFF9F8623B6B5B6A002B10D044
:103130003B6B2433184600F0CDFE0346002B13D022
:103140003F4B4FF080521A60BFF34F8FBFF36F8F2A
:103150000AE0FB6A002B07D0394B4FF080521A600F
:10316000BFF34F8FBFF36F8F01F08CFA012363E041
:103170007B68002B03D101F085FA00235CE07B6BB8
:10318000002B06D107F11403184600F005FF0123B8
:103190007B6301F077FA00F0B9FC01F045FA3B6B74
:1031A00093F844305BB2B3F1FF3F03D13B6B002295
:1031B00083F844203B6B93F845305BB2B3F1FF3F9B
:1031C00003D13B6B002283F8452001F05BFA3A1DE6
:1031D00007F114031146184600F0F4FE0346002BD5
:1031E00024D1386B00F096FA0346002B18D03B6BC5
:1031F00010337A681146184600F048FE386B00F02C
:1032000021FA00F091FC0346002B7FF47CAF0C4BBD
:103210004FF080521A60BFF34F8FBFF36F8F72E78A
:10322000386B00F00FFA00F07FFC6CE7386B00F0B1
:1032300009FA00F079FC002318463837BD4680BDF6
:1032400004ED00E080B58EB000AFF860B9607A6040
:103250003B60FB683B633B6B002B09D14FF0500395
:1032600083F31188BFF36F8FBFF34F8F7B62FEE74D
:10327000BB68002B03D13B6B1B6C002B01D10123DE
:1032800000E00023002B09D14FF0500383F3118895
:10329000BFF36F8FBFF34F8F3B62FEE73B68022B9C
:1032A00003D13B6BDB6B012B01D1012300E0002339
:1032B000002B09D14FF0500383F31188BFF36F8FB8
:1032C000BFF34F8FFB61FEE701F068FAEFF3118265
:1032D0004FF0500383F31188BFF36F8FBFF34F8F0D
:1032E000BA617B61BB69FB623B6B9A6B3B6BDB6BCF
:1032F0009A4202D33B68022B2CD13B6B93F84530AA
:1033000087F82B303A68B968386B00F00BF997F9F9
:103310002B30B3F1FF3F12D13B6B5B6A002B16D011
:103320003B6B2433184600F0D5FD0346002B0ED02E
:103330007B68002B0BD07B6801221A6007E097F8AE
:103340002B300133DBB25AB23B6B83F845200123AB
:103350007B6301E000237B63FB6A3B613B6983F392
:1033600011887B6B18463837BD4680BD80B58CB060
:1033700000AFF860B9607A600023FB62FB68BB6253
:10338000BB6A002B09D14FF0500383F31188BFF3C0
:103390006F8FBFF34F8F3B62FEE7BB68002B03D1FB
:1033A000BB6A1B6C002B01D1012300E00023002B22
:1033B00009D14FF0500383F31188BFF36F8FBFF330
:1033C0004F8FFB61FEE700F03FFF0346002B02D169
:1033D0007B68002B01D1012300E00023002B09D1E1
:1033E0004FF0500383F31188BFF36F8FBFF34F8FFC
:1033F000BB61FEE701F018F9BB6A9B6B7B627B6ADD
:10340000002B1FD0B968B86A00F0F6F87B6A5A1E24
:10341000BB6A9A63BB6A1B69002B0FD0BB6A10336F
:10342000184600F057FD0346002B07D03C4B4FF0E9
:1034300080521A60BFF34F8FBFF36F8F01F022F9F4
:10344000012369E07B68002B03D101F01BF9002305
:1034500062E0FB6A002B06D107F11003184600F06A
:103460009BFD0123FB6201F00DF900F04FFB01F021
:10347000DBF8BB6A93F844305BB2B3F1FF3F03D192
:10348000BB6A002283F84420BB6A93F845305BB2E4
:10349000B3F1FF3F03D1BB6A002283F8452001F05E
:1034A000F1F83A1D07F110031146184600F08AFDA5
:1034B0000346002B23D1B86A00F016F90346002B0F
:1034C00017D0BB6A24337A681146184600F0DEFC38
:1034D000B86A00F0B7F800F027FB0346002B89D14B
:1034E0000F4B4FF080521A60BFF34F8FBFF36F8FB7
:1034F00080E7B86A00F0A6F800F016FB7AE7B86A31
:1035000000F0A0F800F010FBB86A00F0EDF80346F8
:10351000002B3FF46FAF002318463037BD4680BD07
:1035200004ED00E080B586B000AFF860B9607A6065
:1035300000237B61FB689B6B3B61FB681B6C002B72
:103540000DD1FB681B68002B4DD1FB685B681846EA
:1035500000F098FE7861FB6800225A6043E07B68C7
:10356000002B19D1FB689868FB681B6C1A46B96878
:1035700001F048FBFB689A68FB681B6C1A44FB6807
:103580009A60FB689A68FB685B689A422BD3FB6879
:103590001A68FB689A6026E0FB68D868FB681B6CB9
:1035A0001A46B96801F02EFBFB68DA68FB681B6CF1
:1035B0005B421A44FB68DA60FB68DA68FB681B68E8
:1035C0009A4207D2FB685A68FB681B6C5B421A443C
:1035D000FB68DA607B68022B05D13B69002B02D0C7
:1035E0003B69013B3B613B695A1CFB689A637B6901
:1035F00018461837BD4680BD80B582B000AF7860F0
:1036000039607B681B6C002B18D07B68DA687B689C
:103610001B6C1A447B68DA607B68DA687B685B68DD
:103620009A4203D37B681A687B68DA607B68D96842
:103630007B681B6C1A46386801F0E4FA00BF083753
:10364000BD4680BD80B584B000AF786000F0ECFF6F
:103650007B6893F84530FB7311E07B685B6A002B55
:1036600012D07B682433184600F034FC0346002B4C
:1036700001D000F007FDFB7B013BDBB2FB7397F948
:103680000F30002BE9DC00E000BF7B68FF2283F8ED
:10369000452000F0F7FF00F0C7FF7B6893F8443047
:1036A000BB7311E07B681B69002B12D07B68103361
:1036B000184600F00FFC0346002B01D000F0E2FC9E
:1036C000BB7B013BDBB2BB7397F90E30002BE9DC0F
:1036D00000E000BF7B68FF2283F8442000F0D2FFA7
:1036E00000BF1037BD4680BD80B584B000AF7860A4
:1036F00000F09AFF7B689B6B002B02D10123FB60DB
:1037000001E00023FB6000F0BDFFFB6818461037A6
:10371000BD4680BD80B584B000AF786000F084FF06
:103720007B689A6B7B68DB6B9A4202D10123FB605A
:1037300001E00023FB6000F0A5FFFB68184610378E
:10374000BD4680BD80B58EB004AFF860B9607A60C8
:103750003B607B6B002B09D14FF0500383F3118842
:10376000BFF36F8FBFF34F8F3B62FEE7BB6B002B46
:1037700009D14FF0500383F31188BFF36F8FBFF36C
:103780004F8FFB61FEE754233B613B69542B09D00B
:103790004FF0500383F31188BFF36F8FBFF34F8F48
:1037A000BB61FEE7BB6B002B1ED07B6B002B1BD0DD
:1037B000BB6B7B627B6A7A6B1A637B6A022283F83B
:1037C0005120002303937B6A029307F114030193B2
:1037D0003B6B00933B687A68B968F86800F050F872
:1037E000786A00F0CBF801E000237B617B69184622
:1037F0002837BD4680BD80B58CB004AFF860B96095
:103800003B601346FB80FB889B00184601F002F8E2
:1038100078617B69002B0ED0542000F0FBFFF8612B
:10382000FB69002B03D0FB697A691A6305E07869AC
:1038300001F0B2F801E00023FB61FB69002B17D017
:10384000FB69002283F85120FA8800230393FB6967
:103850000293FB6A0193BB6A00933B68B968F868FE
:1038600000F00EF8F86900F089F80123BB6102E06E
:103870004FF0FF33BB61BB6918462037BD4680BDA2
:1038800080B588B000AFF860B9607A603B603B6B90
:103890001A6B7B6803F18043013B9B001344BB61BF
:1038A000BB6923F00703BB61BB6903F00703002B6F
:1038B00009D04FF0500383F31188BFF36F8FBFF32C
:1038C0004F8F7B61FEE70023FB6112E0BA68FB6962
:1038D000134419783A6BFB69134434330A461A705F
:1038E000BA68FB6913441B78002B06D0FB690133CF
:1038F000FB61FB690F2BE9D900E000BF3B6B0022A5
:1039000083F84320BB6A062B01D90623BB623B6BBD
:10391000BA6ADA623B6BBA6A5A643B6B00229A64F9
:103920003B6B04331846FFF73FFA3B6B18331846DE
:10393000FFF73AFA3B6B3A6B1A61BB6AC3F10702B5
:103940003B6B9A613B6B3A6B5A623B6B0022DA64C9
:103950003B6B002283F850203A68F968B86900F0A0
:103960007BFD02463B6B1A60FB6A002B02D0FB6AB0
:103970003A6B1A6000BF2037BD4680BD80B582B06B
:1039800000AF786000F050FE2A4B1B680133294AD3
:103990001360294B1B68002B09D1274A7B681360F1
:1039A000244B1B68012B10D100F090FB0DE0234B42
:1039B0001B68002B09D1204B1B68DA6A7B68DB6A25
:1039C0009A4202D81C4A7B6813601D4B1B68013366
:1039D0001B4A13607B68DB6A01229A40194B1B6803
:1039E0001343184A13607B68DA6A13469B0013443A
:1039F0009B00154A1A447B68043319461046FFF7AA
:103A0000DFF900F03FFE0D4B1B68002B0ED00A4B78
:103A10001B68DA6A7B68DB6A9A4207D20B4B4FF06D
:103A200080521A60BFF34F8FBFF36F8F00BF08370C
:103A3000BD4680BDA8040020A8030020B4040020D7
:103A4000C4040020B0040020AC03002004ED00E01A
:103A500080B58AB004AF0023BB6000237B603A4688
:103A6000391D07F108031846FCF772FB39687B68BB
:103A7000BA68029201930023009300230A461D496D
:103A80001D48FFF75FFE02461C4B1A601B4B1B686C
:103A9000002B02D001237B6101E000237B617B6965
:103AA000012B15D14FF0500383F31188BFF36F8FB3
:103AB000BFF34F8F3B61124B4FF0FF321A60114B37
:103AC00001221A60104B00221A6000F03DFD0DE04B
:103AD0007B69B3F1FF3F09D14FF0500383F31188A5
:103AE000BFF36F8FBFF34F8FFB60FEE700BF183748
:103AF000BD4680BD684C00089D400008CC040020F5
:103B0000C8040020B4040020AC04002080B400AF3E
:103B1000044B1B680133034A136000BFBD4680BCE1
:103B2000704700BFD004002080B584B000AF0023F0
:103B3000FB600023BB60414B1B68002B09D14FF099
:103B4000500383F31188BFF36F8FBFF34F8F3B6038
:103B5000FEE700F069FD394B1B68013B374A1360F3
:103B6000364B1B68002B61D1354B1B68002B5DD099
:103B70002EE0344BDB68DB68FB60FB6818331846CB
:103B8000FFF779F9FB6804331846FFF774F9FB680F
:103B9000DB6A01229A402C4B1B6813432A4A1360AC
:103BA000FB68DA6A13469B0013449B00274A1A44B9
:103BB000FB68043319461046FFF702F9FB68DA6A1E
:103BC000234B1B68DB6A9A4202D3224B01221A6004
:103BD0001C4B1B68002BCCD1FB68002B01D000F0E4
:103BE0000FFB1D4B1B687B607B68002B10D000F027
:103BF00037F80346002B02D0164B01221A607B686F
:103C0000013B7B607B68002BF1D1134B00221A60D3
:103C1000104B1B68002B09D00123BB600F4B4FF0EA
:103C200080521A60BFF34F8FBFF36F8F00F02AFDF1
:103C3000BB6818461037BD4680BD00BFD0040020C9
:103C4000A804002068040020B0040020AC03002079
:103C5000A8030020BC040020B804002004ED00E00C
:103C600080B586B000AF00237B61504B1B68002BF2
:103C700040F08C804E4B1B6801333B614C4A3B69E2
:103C800013603B69002B1FD14A4B1B681B68002B3C
:103C900009D04FF0500383F31188BFF36F8FBFF348
:103CA0004F8F3B60FEE7434B1B68FB60424B1B683A
:103CB000404A1360404AFB681360404B1B68013365
:103CC0003E4A136000F09CFA3D4B1B683A699A42E9
:103CD0004DD3384B1B681B68002B01D1012300E03A
:103CE0000023002B04D0364B4FF0FF321A603EE029
:103CF000304B1B68DB68DB68BB60BB685B687B6064
:103D00003A697B689A4203D22D4A7B6813602EE0A1
:103D1000BB6804331846FFF7AEF8BB689B6A002BFC
:103D200004D0BB6818331846FFF7A5F8BB68DB6AF8
:103D300001229A40234B1B681343224A1360BB683D
:103D4000DA6A13469B0013449B001F4A1A44BB685F
:103D5000043319461046FFF733F8BB68DA6A1B4B89
:103D60001B68DB6A9A42B4D301237B61B1E7174B2E
:103D70001B68DA6A144913469B0013449B000B44EA
:103D80001B68012B07D901237B6104E0104B1B68E2
:103D900001330F4A13600F4B1B68002B01D0012326
:103DA0007B617B6918461837BD4680BDD004002072
:103DB000AC0400206004002064040020C004002043
:103DC000C8040020B0040020AC030020A803002099
:103DD000B8040020BC04002080B487B000AF264B9C
:103DE0001B68002B03D0254B01221A603EE0234BB9
:103DF00000221A60224B1B68FB60FB68B3FA83F356
:103E0000FB72FB7AC3F11F037B611E497A6913467B
:103E10009B0013449B000B441B68002B09D14FF0FF
:103E2000500383F31188BFF36F8FBFF34F8F7B6015
:103E3000FEE77A6913469B0013449B00114A134422
:103E40003B613B695B685A683B695A603B695A68E9
:103E50003B6908339A4204D13B695B685A683B6905
:103E60005A603B695B68DB68074A136000BF1C3718
:103E7000BD4680BC704700BFD0040020BC040020B9
:103E8000B0040020AC030020A803002080B584B05B
:103E900000AF786039607B68002B09D14FF0500388
:103EA00083F31188BFF36F8FBFF34F8FFB60FEE783
:103EB000074B1B68183319467868FEF7A4FF0121E9
:103EC000386800F063FA00BF1037BD4680BD00BF00
:103ED000A803002080B586B000AF78607B68DB68FF
:103EE000DB683B613B69002B09D14FF0500383F342
:103EF0001188BFF36F8FBFF34F8FFB60FEE73B6905
:103F000018331846FEF7B7FF1D4B1B68002B1CD15A
:103F10003B6904331846FEF7AEFF3B69DB6A0122BA
:103F20009A40184B1B681343164A13603B69DA6AC0
:103F300013469B0013449B00134A1A443B69043305
:103F400019461046FEF73CFF05E03B691833194659
:103F50000E48FEF735FF3B69DA6A0D4B1B68DB6ADA
:103F60009A4205D901237B610A4B01221A6001E0C4
:103F700000237B617B6918461837BD4680BD00BFB2
:103F8000D0040020B0040020AC030020680400200E
:103F9000A8030020BC04002080B483B000AF786088
:103FA000064B1A687B681A60054B1A687B685A6072
:103FB00000BF0C37BD4680BC704700BFC004002066
:103FC000AC04002080B588B000AF786039607B68B1
:103FD000002B09D14FF0500383F31188BFF36F8F8B
:103FE000BFF34F8F3B61FEE73B68002B09D14FF0D9
:103FF000500383F31188BFF36F8FBFF34F8FFB60C4
:10400000FEE700F011FB1D4B1B68BB617B685B6822
:10401000BA69D31A7B613B681B68B3F1FF3F02D1D9
:104020000023FB6123E07B681A68154B1B689A42EA
:1040300007D07B685B68BA699A4202D30123FB61AF
:1040400015E03B681B687A699A420BD23B681A6894
:104050007B69D21A3B681A607868FFF79DFF0023DE
:10406000FB6104E03B6800221A600123FB6100F061
:1040700009FBFB6918462037BD4680BDAC04002013
:10408000C004002080B400AF034B01221A6000BFBF
:10409000BD4680BC704700BFBC04002080B582B024
:1040A00000AF786000F052F8064B1B68012BF9D97D
:1040B000054B4FF080521A60BFF34F8FBFF36F8FE5
:1040C000F0E700BFAC03002004ED00E080B582B053
:1040D00000AF00237B600CE07A6813469B0013441A
:1040E0009B00124A13441846FEF73FFE7B680133DB
:1040F0007B607B68062BEFD90D48FEF736FE0D4836
:10410000FEF733FE0C48FEF730FE0C48FEF72DFE9E
:104110000B48FEF72AFE0B4B054A1A600A4B054A6C
:104120001A6000BF0837BD4680BD00BFAC03002049
:10413000380400204C040020680400207C04002087
:1041400094040020600400206404002080B582B044
:1041500000AF19E000F068FA0F4BDB68DB687B60AA
:104160007B6804331846FEF786FE0C4B1B68013B48
:104170000A4A13600A4B1B68013B094A136000F0AE
:1041800081FA786800F00EF8054B1B68002BE1D12E
:1041900000BF0837BD4680BD7C040020A804002075
:1041A0009004002080B584B000AF78607B6893F8FD
:1041B0005130002B08D17B681B6B184600F0ECFBDC
:1041C000786800F0E9FB17E07B6893F85130012B29
:1041D00003D1786800F0E0FB0EE07B6893F8513083
:1041E000022B09D04FF0500383F31188BFF36F8F78
:1041F000BFF34F8FFB60FEE700BF1037BD4680BDA9
:1042000080B483B000AF0E4B1B681B68002B01D13C
:10421000012300E00023002B04D00A4B4FF0FF32B3
:104220001A6008E0064B1B68DB68DB687B607B6814
:104230005B68044A136000BF0C37BD4680BC704702
:1042400060040020C804002080B483B000AF0B4B92
:104250001B68002B02D101237B6008E0084B1B6820
:10426000002B02D102237B6001E000237B607B688E
:1042700018460C37BD4680BC704700BFB404002010
:10428000D004002080B586B000AF78607B683B61C9
:1042900000237B617B68002B6CD0394B1B683A692B
:1042A0009A4209D04FF0500383F31188BFF36F8F08
:1042B000BFF34F8FFB60FEE73B699B6C002B09D17E
:1042C0004FF0500383F31188BFF36F8FBFF34F8F0D
:1042D000BB60FEE73B699B6C5A1E3B699A643B6975
:1042E000DA6A3B695B6C9A4244D03B699B6C002B59
:1042F00040D13B6904331846FEF7BDFD0346002B51
:1043000015D13B69DA6A1F4913469B0013449B0091
:104310000B441B68002B0AD13B69DB6A012202FABD
:1043200003F3DA43184B1B681340174A13603B69C9
:104330005A6C3B69DA623B69DB6AC3F107023B698D
:104340009A613B69DB6A01229A400F4B1B68134359
:104350000D4A13603B69DA6A13469B0013449B00C5
:10436000084A1A443B69043319461046FEF728FDF3
:1043700001237B617B6918461837BD4680BD00BFAD
:10438000A8030020AC030020B004002080B584B056
:1043900000AF78603960294B1B68FB60284B1B68B5
:1043A00004331846FEF767FD0346002B0BD1244B60
:1043B0001B68DB6A012202FA03F3DA43214B1B6814
:1043C0001340204A13607B68B3F1FF3F0AD13B687A
:1043D000002B07D01A4B1B68043319461A48FEF706
:1043E000EFFC26E0FA687B681344BB60144B1B6843
:1043F000BA685A60BA68FB689A4209D2134B1A68C5
:104400000F4B1B68043319461046FEF7FCFC10E006
:104410000F4B1A680A4B1B68043319461046FEF707
:10442000F2FC0C4B1B68BA689A4202D2094ABB687C
:10443000136000BF1037BD4680BD00BFAC04002034
:10444000A8030020B004002094040020640400208D
:1044500060040020C804002080B485B000AFF8607C
:10446000B9607A60FB68043BFB60FB684FF08072C8
:104470001A60FB68043BFB60BB6823F00102FB6829
:104480001A60FB68043BFB60084AFB681A60FB6823
:10449000143BFB607A68FB681A60FB68203BFB609A
:1044A000FB6818461437BD4680BC7047B14400080D
:1044B00080B485B000AF00237B60104B1B68B3F164
:1044C000FF3F09D04FF0500383F31188BFF36F8F84
:1044D000BFF34F8FFB60FEE74FF0500383F311886B
:1044E000BFF36F8FBFF34F8FBB6000BF7B68002BA4
:1044F000FCD000BF1437BD4680BC70470C000020C4
:10450000074B19680868B0E8F00F80F30988BFF31B
:104510006F8F4FF0000080F311884EF00D0E704742
:10452000A803002000BF00BF06480068006880F3B1
:10453000088862B661B6BFF34F8FBFF36F8F00DF9D
:1045400000BF00BF08ED00E080B584B000AF314B84
:10455000FB60FB681B78DBB27B60FB68FF221A7094
:10456000FB681B78DBB2FB70FB78DBB203F0500317
:10457000DAB2294B1A70294B07221A6009E0274B3F
:104580001B68013B254A1360FB78DBB25B00DBB2A2
:10459000FB70FB78DBB203F08003802BEFD01F4B66
:1045A0001B68C3F10703042B09D04FF0500383F3BA
:1045B0001188BFF36F8FBFF34F8FBB60FEE7174BC0
:1045C0001B681B02154A1360144B1B6803F4E0635D
:1045D000124A13607B68DAB2FB681A70104B1B68D2
:1045E0000F4A43F4700313600D4B1B680C4A43F0F1
:1045F0007043136000F0B0F80A4B00221A60FFF716
:1046000093FFFFF7E9FBFFF753FF0023184610372E
:10461000BD4680BD00E400E0D4040020D8040020A2
:1046200020ED00E00C00002080B483B000AF4FF01C
:10463000500383F31188BFF36F8FBFF34F8F7B60FD
:104640000E4B1B6801330D4A13600C4B1B68012B8A
:104650000ED10B4B1B68DBB2002B09D04FF050037F
:1046600083F31188BFF36F8FBFF34F8F3B60FEE77B
:1046700000BF0C37BD4680BC704700BF0C00002057
:1046800004ED00E080B483B000AF104B1B68002B3A
:1046900009D14FF0500383F31188BFF36F8FBFF33D
:1046A0004F8F7B60FEE7094B1B68013B074A136095
:1046B000064B1B68002B04D100233B603B6883F34F
:1046C000118800BF0C37BD4680BC70470C0000202D
:1046D000EFF30980BFF36F8F0D4B1A6820E9F00FDD
:1046E00010602DE908404FF0500080F31188FFF76B
:1046F00073FB4FF0000080F31188BDE80840196893
:104700000868B0E8F00F80F30988BFF36F8F704737
:10471000A803002000BF00BF80B582B000AF4FF0FB
:10472000500383F31188BFF36F8FBFF34F8F7B600C
:10473000FFF796FA0346002B03D0064B4FF080524A
:104740001A6000233B603B6883F3118800BF083781
:10475000BD4680BD04ED00E080B400AF0A4B0022EE
:104760001A600A4B00221A60094B1B68094AA2FB17
:1047700003239B09084A013B1360034B07221A607D
:1047800000BFBD4680BC704710E000E018E000E0CC
:1047900000000020D34D621014E000E080B485B02A
:1047A00000AFEFF30583FB60FB680F2B13D9154AAD
:1047B000FB6813441B78FB72134B1B78FA7A9A42FE
:1047C00009D24FF0500383F31188BFF36F8FBFF30B
:1047D0004F8F7B60FEE70D4B1B6803F4E0620C4BD0
:1047E0001B689A4209D94FF0500383F31188BFF335
:1047F0006F8FBFF34F8F3B60FEE700BF1437BD469E
:1048000080BC7047F0E300E0D40400200CED00E031
:10481000D804002080B58AB000AF78600023FB6127
:10482000FFF774F9574B1B68002B01D100F00CF90E
:10483000554B1A687B681340002B40F08C807B68D6
:10484000002B1CD008227B6813447B607B6803F03C
:104850000703002B13D07B6823F0070308337B602A
:104860007B6803F00703002B09D04FF0500383F35C
:104870001188BFF36F8FBFF34F8F7B61FEE77B68BB
:10488000002B68D0414B1B687A689A4263D8404B32
:104890003B623F4B1B687B6204E07B6A3B627B6A46
:1048A0001B687B627B6A5B687A689A4203D97B6A81
:1048B0001B68002BF1D1334B1B687A6A9A424AD0AD
:1048C0003B6A1B6808221344FB617B6A1A683B6AD7
:1048D0001A607B6A5A687B68D21A08235B009A4286
:1048E0001ED97A6A7B681344BB61BB6903F0070376
:1048F000002B09D04FF0500383F31188BFF36F8F63
:10490000BFF34F8F3B61FEE77B6A5A687B68D21A20
:10491000BB695A607B6A7A685A60B86900F0F6F839
:104920001A4B1A687B6A5B68D31A184A1360174BD4
:104930001A68184B1B689A4203D2144B1B68154A1D
:1049400013607B6A5A68104B1B681A437B6A5A6073
:104950007B6A00221A60FFF7E7F8FB6903F00703A0
:10496000002B09D04FF0500383F31188BFF36F8FF2
:10497000BFF34F8FFB60FEE7FB6918462837BD4643
:1049800080BD00BFE4100020F0100020E8100020DF
:10499000DC100020EC10002080B586B000AF7860FD
:1049A0007B687B617B68002B46D008235B427A6979
:1049B00013447B617B693B613B695A68204B1B68F0
:1049C0001340002B09D14FF0500383F31188BFF33C
:1049D0006F8FBFF34F8FFB60FEE73B691B68002BB7
:1049E00009D04FF0500383F31188BFF36F8FBFF3EB
:1049F0004F8FBB60FEE73B695A68114B1B68134041
:104A0000002B19D03B691B68002B15D13B695A68F4
:104A10000B4B1B68DB431A403B695A60FFF776F883
:104A20003B695A68074B1B681344064A1360386990
:104A300000F06CF8FFF778F800BF1837BD4680BD6E
:104A4000F0100020E810002080B485B000AF4FF4D3
:104A50004063BB60274BFB60FB6803F00703002B40
:104A60000CD0FB680733FB60FB6823F00703FB6097
:104A7000BA68FB68D31A1F4A1344BB60FB687B60AB
:104A80001D4A7B6813601C4B00225A607B68BA6821
:104A90001344FB600822FB689B1AFB60FB6823F051
:104AA0000703FB60FB68154A1360144B1B68002268
:104AB0005A60124B1B6800221A607B683B603B689F
:104AC000FA68D21A3B685A600C4B1A683B681A6045
:104AD0003B685B680A4A13603B685B68094A13607D
:104AE000094B4FF000421A6000BF1437BD4680BC2E
:104AF000704700BFDC040020DC100020E410002020
:104B0000EC100020E8100020F010002080B485B0E8
:104B100000AF7860274BFB6002E0FB681B68FB601E
:104B2000FB681B687A689A42F7D8FB68BB60FB6831
:104B30005B68BA6813447A689A4208D1FB685A687D
:104B40007B685B681A44FB685A60FB687B607B6823
:104B5000BB607B685B68BA681A44FB681B689A4252
:104B600018D1FB681A68144B1B689A420DD07B68F9
:104B70005A68FB681B685B681A447B685A60FB686C
:104B80001B681A687B681A6008E00B4B1A687B6820
:104B90001A6003E0FB681A687B681A60FA687B6831
:104BA0009A4202D0FB687A681A6000BF1437BD468B
:104BB00080BC7047DC100020E410002070B5002598
:104BC0000C4E0D4CA41BA410A54209D100F02EF8E8
:104BD00000250A4E0A4CA41BA410A54205D170BDA5
:104BE00056F8253098470135EEE756F825309847B6
:104BF0000135F2E7884C0008884C0008884C000812
:104C00008C4C000810B5431E0A44914200D110BDDF
:104C100011F8014B03F8014FF7E7034602449342B2
:104C200000D1704703F8011BF9E70000F8B500BF99
:104C3000F8BC08BC9E467047F8B500BFF8BC08BC7D
:044C40009E467047D5
:104C440063616E3272630000756172742D74780052
:104C540002030405060708090A0B0C0D0E0F1010B9
:104C64000102000049444C4500000000000000001F
:104C74000000000001020304060708090000000008
:044C84000102030422
:044C880035010008EA
:044C8C00110100080A
:104C90000024F4001000000001000000AAAAAAAA43
:0400000508000C8162
:00000001FF
